{
  "_format": "hh-sol-artifact-1",
  "contractName": "ReputationScore",
  "sourceName": "contracts/ReputationScore.sol",
  "abi": [
    {
      "inputs": [],
      "stateMutability": "nonpayable",
      "type": "constructor"
    },
    {
      "inputs": [
        {
          "internalType": "address",
          "name": "spender",
          "type": "address"
        },
        {
          "internalType": "uint256",
          "name": "allowance",
          "type": "uint256"
        },
        {
          "internalType": "uint256",
          "name": "needed",
          "type": "uint256"
        }
      ],
      "name": "ERC20InsufficientAllowance",
      "type": "error"
    },
    {
      "inputs": [
        {
          "internalType": "address",
          "name": "sender",
          "type": "address"
        },
        {
          "internalType": "uint256",
          "name": "balance",
          "type": "uint256"
        },
        {
          "internalType": "uint256",
          "name": "needed",
          "type": "uint256"
        }
      ],
      "name": "ERC20InsufficientBalance",
      "type": "error"
    },
    {
      "inputs": [
        {
          "internalType": "address",
          "name": "approver",
          "type": "address"
        }
      ],
      "name": "ERC20InvalidApprover",
      "type": "error"
    },
    {
      "inputs": [
        {
          "internalType": "address",
          "name": "receiver",
          "type": "address"
        }
      ],
      "name": "ERC20InvalidReceiver",
      "type": "error"
    },
    {
      "inputs": [
        {
          "internalType": "address",
          "name": "sender",
          "type": "address"
        }
      ],
      "name": "ERC20InvalidSender",
      "type": "error"
    },
    {
      "inputs": [
        {
          "internalType": "address",
          "name": "spender",
          "type": "address"
        }
      ],
      "name": "ERC20InvalidSpender",
      "type": "error"
    },
    {
      "inputs": [
        {
          "internalType": "address",
          "name": "owner",
          "type": "address"
        }
      ],
      "name": "OwnableInvalidOwner",
      "type": "error"
    },
    {
      "inputs": [
        {
          "internalType": "address",
          "name": "account",
          "type": "address"
        }
      ],
      "name": "OwnableUnauthorizedAccount",
      "type": "error"
    },
    {
      "anonymous": false,
      "inputs": [
        {
          "indexed": true,
          "internalType": "address",
          "name": "user",
          "type": "address"
        },
        {
          "indexed": false,
          "internalType": "string",
          "name": "achievement",
          "type": "string"
        }
      ],
      "name": "AchievementUnlocked",
      "type": "event"
    },
    {
      "anonymous": false,
      "inputs": [
        {
          "indexed": true,
          "internalType": "address",
          "name": "owner",
          "type": "address"
        },
        {
          "indexed": true,
          "internalType": "address",
          "name": "spender",
          "type": "address"
        },
        {
          "indexed": false,
          "internalType": "uint256",
          "name": "value",
          "type": "uint256"
        }
      ],
      "name": "Approval",
      "type": "event"
    },
    {
      "anonymous": false,
      "inputs": [
        {
          "indexed": true,
          "internalType": "address",
          "name": "user",
          "type": "address"
        },
        {
          "indexed": false,
          "internalType": "uint256",
          "name": "newLevel",
          "type": "uint256"
        }
      ],
      "name": "LevelUp",
      "type": "event"
    },
    {
      "anonymous": false,
      "inputs": [
        {
          "indexed": true,
          "internalType": "address",
          "name": "previousOwner",
          "type": "address"
        },
        {
          "indexed": true,
          "internalType": "address",
          "name": "newOwner",
          "type": "address"
        }
      ],
      "name": "OwnershipTransferred",
      "type": "event"
    },
    {
      "anonymous": false,
      "inputs": [
        {
          "indexed": true,
          "internalType": "address",
          "name": "user",
          "type": "address"
        },
        {
          "indexed": false,
          "internalType": "uint256",
          "name": "amount",
          "type": "uint256"
        },
        {
          "indexed": false,
          "internalType": "string",
          "name": "reason",
          "type": "string"
        }
      ],
      "name": "ReputationEarned",
      "type": "event"
    },
    {
      "anonymous": false,
      "inputs": [
        {
          "indexed": true,
          "internalType": "address",
          "name": "user",
          "type": "address"
        },
        {
          "indexed": false,
          "internalType": "uint256",
          "name": "amount",
          "type": "uint256"
        },
        {
          "indexed": false,
          "internalType": "string",
          "name": "reason",
          "type": "string"
        }
      ],
      "name": "ReputationSpent",
      "type": "event"
    },
    {
      "anonymous": false,
      "inputs": [
        {
          "indexed": true,
          "internalType": "address",
          "name": "from",
          "type": "address"
        },
        {
          "indexed": true,
          "internalType": "address",
          "name": "to",
          "type": "address"
        },
        {
          "indexed": false,
          "internalType": "uint256",
          "name": "value",
          "type": "uint256"
        }
      ],
      "name": "Transfer",
      "type": "event"
    },
    {
      "inputs": [
        {
          "internalType": "address",
          "name": "user",
          "type": "address"
        },
        {
          "internalType": "string",
          "name": "achievement",
          "type": "string"
        }
      ],
      "name": "addAchievement",
      "outputs": [],
      "stateMutability": "nonpayable",
      "type": "function"
    },
    {
      "inputs": [
        {
          "internalType": "address",
          "name": "owner",
          "type": "address"
        },
        {
          "internalType": "address",
          "name": "spender",
          "type": "address"
        }
      ],
      "name": "allowance",
      "outputs": [
        {
          "internalType": "uint256",
          "name": "",
          "type": "uint256"
        }
      ],
      "stateMutability": "view",
      "type": "function"
    },
    {
      "inputs": [
        {
          "internalType": "address",
          "name": "spender",
          "type": "address"
        },
        {
          "internalType": "uint256",
          "name": "value",
          "type": "uint256"
        }
      ],
      "name": "approve",
      "outputs": [
        {
          "internalType": "bool",
          "name": "",
          "type": "bool"
        }
      ],
      "stateMutability": "nonpayable",
      "type": "function"
    },
    {
      "inputs": [
        {
          "internalType": "address",
          "name": "user",
          "type": "address"
        },
        {
          "internalType": "uint256",
          "name": "amount",
          "type": "uint256"
        },
        {
          "internalType": "string",
          "name": "reason",
          "type": "string"
        }
      ],
      "name": "awardReputation",
      "outputs": [],
      "stateMutability": "nonpayable",
      "type": "function"
    },
    {
      "inputs": [
        {
          "internalType": "address",
          "name": "account",
          "type": "address"
        }
      ],
      "name": "balanceOf",
      "outputs": [
        {
          "internalType": "uint256",
          "name": "",
          "type": "uint256"
        }
      ],
      "stateMutability": "view",
      "type": "function"
    },
    {
      "inputs": [
        {
          "internalType": "uint256",
          "name": "balance",
          "type": "uint256"
        }
      ],
      "name": "calculateLevel",
      "outputs": [
        {
          "internalType": "uint256",
          "name": "",
          "type": "uint256"
        }
      ],
      "stateMutability": "view",
      "type": "function"
    },
    {
      "inputs": [],
      "name": "decimals",
      "outputs": [
        {
          "internalType": "uint8",
          "name": "",
          "type": "uint8"
        }
      ],
      "stateMutability": "view",
      "type": "function"
    },
    {
      "inputs": [
        {
          "internalType": "address",
          "name": "user",
          "type": "address"
        },
        {
          "internalType": "uint256",
          "name": "amount",
          "type": "uint256"
        },
        {
          "internalType": "string",
          "name": "reason",
          "type": "string"
        }
      ],
      "name": "deductReputation",
      "outputs": [],
      "stateMutability": "nonpayable",
      "type": "function"
    },
    {
      "inputs": [],
      "name": "getLevelThresholds",
      "outputs": [
        {
          "internalType": "uint256[]",
          "name": "",
          "type": "uint256[]"
        }
      ],
      "stateMutability": "view",
      "type": "function"
    },
    {
      "inputs": [
        {
          "internalType": "address",
          "name": "user",
          "type": "address"
        }
      ],
      "name": "getTotalEarned",
      "outputs": [
        {
          "internalType": "uint256",
          "name": "",
          "type": "uint256"
        }
      ],
      "stateMutability": "view",
      "type": "function"
    },
    {
      "inputs": [
        {
          "internalType": "address",
          "name": "user",
          "type": "address"
        }
      ],
      "name": "getTotalSpent",
      "outputs": [
        {
          "internalType": "uint256",
          "name": "",
          "type": "uint256"
        }
      ],
      "stateMutability": "view",
      "type": "function"
    },
    {
      "inputs": [
        {
          "internalType": "address",
          "name": "user",
          "type": "address"
        }
      ],
      "name": "getUserAchievements",
      "outputs": [
        {
          "internalType": "string[]",
          "name": "",
          "type": "string[]"
        }
      ],
      "stateMutability": "view",
      "type": "function"
    },
    {
      "inputs": [
        {
          "internalType": "address",
          "name": "user",
          "type": "address"
        }
      ],
      "name": "getUserLevel",
      "outputs": [
        {
          "internalType": "uint256",
          "name": "",
          "type": "uint256"
        }
      ],
      "stateMutability": "view",
      "type": "function"
    },
    {
      "inputs": [
        {
          "internalType": "address",
          "name": "user",
          "type": "address"
        }
      ],
      "name": "getUserReputationData",
      "outputs": [
        {
          "components": [
            {
              "internalType": "uint256",
              "name": "totalEarned",
              "type": "uint256"
            },
            {
              "internalType": "uint256",
              "name": "totalSpent",
              "type": "uint256"
            },
            {
              "internalType": "uint256",
              "name": "lastUpdated",
              "type": "uint256"
            },
            {
              "internalType": "uint256",
              "name": "level",
              "type": "uint256"
            },
            {
              "internalType": "uint256[]",
              "name": "transactionHistory",
              "type": "uint256[]"
            },
            {
              "internalType": "string[]",
              "name": "achievements",
              "type": "string[]"
            }
          ],
          "internalType": "struct ReputationScore.ReputationData",
          "name": "",
          "type": "tuple"
        }
      ],
      "stateMutability": "view",
      "type": "function"
    },
    {
      "inputs": [
        {
          "internalType": "address",
          "name": "user",
          "type": "address"
        }
      ],
      "name": "getUserTransactionHistory",
      "outputs": [
        {
          "internalType": "uint256[]",
          "name": "",
          "type": "uint256[]"
        }
      ],
      "stateMutability": "view",
      "type": "function"
    },
    {
      "inputs": [
        {
          "internalType": "uint256",
          "name": "",
          "type": "uint256"
        }
      ],
      "name": "levelThresholds",
      "outputs": [
        {
          "internalType": "uint256",
          "name": "",
          "type": "uint256"
        }
      ],
      "stateMutability": "view",
      "type": "function"
    },
    {
      "inputs": [],
      "name": "name",
      "outputs": [
        {
          "internalType": "string",
          "name": "",
          "type": "string"
        }
      ],
      "stateMutability": "view",
      "type": "function"
    },
    {
      "inputs": [],
      "name": "owner",
      "outputs": [
        {
          "internalType": "address",
          "name": "",
          "type": "address"
        }
      ],
      "stateMutability": "view",
      "type": "function"
    },
    {
      "inputs": [],
      "name": "renounceOwnership",
      "outputs": [],
      "stateMutability": "nonpayable",
      "type": "function"
    },
    {
      "inputs": [],
      "name": "symbol",
      "outputs": [
        {
          "internalType": "string",
          "name": "",
          "type": "string"
        }
      ],
      "stateMutability": "view",
      "type": "function"
    },
    {
      "inputs": [],
      "name": "totalSupply",
      "outputs": [
        {
          "internalType": "uint256",
          "name": "",
          "type": "uint256"
        }
      ],
      "stateMutability": "view",
      "type": "function"
    },
    {
      "inputs": [
        {
          "internalType": "address",
          "name": "to",
          "type": "address"
        },
        {
          "internalType": "uint256",
          "name": "amount",
          "type": "uint256"
        }
      ],
      "name": "transfer",
      "outputs": [
        {
          "internalType": "bool",
          "name": "",
          "type": "bool"
        }
      ],
      "stateMutability": "nonpayable",
      "type": "function"
    },
    {
      "inputs": [
        {
          "internalType": "address",
          "name": "from",
          "type": "address"
        },
        {
          "internalType": "address",
          "name": "to",
          "type": "address"
        },
        {
          "internalType": "uint256",
          "name": "amount",
          "type": "uint256"
        }
      ],
      "name": "transferFrom",
      "outputs": [
        {
          "internalType": "bool",
          "name": "",
          "type": "bool"
        }
      ],
      "stateMutability": "nonpayable",
      "type": "function"
    },
    {
      "inputs": [
        {
          "internalType": "address",
          "name": "newOwner",
          "type": "address"
        }
      ],
      "name": "transferOwnership",
      "outputs": [],
      "stateMutability": "nonpayable",
      "type": "function"
    },
    {
      "inputs": [
        {
          "internalType": "uint256[]",
          "name": "newThresholds",
          "type": "uint256[]"
        }
      ],
      "name": "updateLevelThresholds",
      "outputs": [],
      "stateMutability": "nonpayable",
      "type": "function"
    },
    {
      "inputs": [
        {
          "internalType": "address",
          "name": "",
          "type": "address"
        }
      ],
      "name": "userReputation",
      "outputs": [
        {
          "internalType": "uint256",
          "name": "totalEarned",
          "type": "uint256"
        },
        {
          "internalType": "uint256",
          "name": "totalSpent",
          "type": "uint256"
        },
        {
          "internalType": "uint256",
          "name": "lastUpdated",
          "type": "uint256"
        },
        {
          "internalType": "uint256",
          "name": "level",
          "type": "uint256"
        }
      ],
      "stateMutability": "view",
      "type": "function"
    }
  ],
  "bytecode": "0x60806040523480156200001157600080fd5b50336040518060400160405280601681526020017f4f6e636861696e4d696e642052657075746174696f6e000000000000000000008152506040518060400160405280600381526020016205245560ec1b81525081600390816200007691906200029a565b5060046200008582826200029a565b5050506001600160a01b038116620000b757604051631e4fbdf760e01b81526000600482015260240160405180910390fd5b620000c28162000135565b50604080516101408101825260008152606460208201526101f4918101919091526103e860608201526109c4608082015261138860a082015261271060c08201526161a860e082015261c350610100820152620186a06101208201526200012e90600790600a62000187565b5062000366565b600580546001600160a01b038381166001600160a01b0319831681179093556040519116919082907f8be0079c531659141344cd1fd0a4f28419497f9722a3daafe3b4186f6b6457e090600090a35050565b828054828255906000526020600020908101928215620001cc579160200282015b82811115620001cc578251829062ffffff16905591602001919060010190620001a8565b50620001da929150620001de565b5090565b5b80821115620001da5760008155600101620001df565b634e487b7160e01b600052604160045260246000fd5b600181811c908216806200022057607f821691505b6020821081036200024157634e487b7160e01b600052602260045260246000fd5b50919050565b601f8211156200029557600081815260208120601f850160051c81016020861015620002705750805b601f850160051c820191505b8181101562000291578281556001016200027c565b5050505b505050565b81516001600160401b03811115620002b657620002b6620001f5565b620002ce81620002c784546200020b565b8462000247565b602080601f831160018114620003065760008415620002ed5750858301515b600019600386901b1c1916600185901b17855562000291565b600085815260208120601f198616915b82811015620003375788860151825594840194600190910190840162000316565b5085821015620003565787850151600019600388901b60f8161c191681555b5050505050600190811b01905550565b61194880620003766000396000f3fe608060405234801561001057600080fd5b506004361061018e5760003560e01c806376cd06a7116100de578063c05be6b111610097578063dd62ed3e11610071578063dd62ed3e146103a7578063e503bb05146103e0578063f09153c414610435578063f2fde38b1461045557600080fd5b8063c05be6b11461036e578063c51309db14610381578063dce3dc1f1461039457600080fd5b806376cd06a7146102e1578063810a30ce146102f45780638da5cb5b14610314578063937b4b341461032f57806395d89b4114610358578063a9059cbb1461036057600080fd5b806323b872dd1161014b5780635c445412116101255780635c4454121461028a5780636ecd8c281461029d57806370a08231146102b0578063715018a6146102d957600080fd5b806323b872dd14610253578063313ce56714610266578063498f07f41461027557600080fd5b806302c81f821461019357806306fdde03146101d2578063095ea7b3146101e7578063132bbe111461020a57806318160ddd1461021f57806321923bde14610227575b600080fd5b6101bf6101a1366004611284565b6001600160a01b031660009081526006602052604090206001015490565b6040519081526020015b60405180910390f35b6101da610468565b6040516101c991906112ec565b6101fa6101f53660046112ff565b6104fa565b60405190151581526020016101c9565b610212610514565b6040516101c99190611329565b6002546101bf565b6101bf610235366004611284565b6001600160a01b031660009081526006602052604090206003015490565b6101fa61026136600461136d565b61056b565b604051601281526020016101c9565b610288610283366004611460565b6105d4565b005b6101bf6102983660046114b7565b610767565b6102886102ab3660046114d0565b610788565b6101bf6102be366004611284565b6001600160a01b031660009081526020819052604090205490565b6102886108b0565b6102886102ef366004611576565b6108c4565b610307610302366004611284565b6109be565b6040516101c99190611619565b6005546040516001600160a01b0390911681526020016101c9565b6101bf61033d366004611284565b6001600160a01b031660009081526006602052604090205490565b6101da610b72565b6101fa6102613660046112ff565b61028861037c366004611460565b610b81565b61021261038f366004611284565b610d19565b6101bf6103a23660046114b7565b610d88565b6101bf6103b53660046116b3565b6001600160a01b03918216600090815260016020908152604080832093909416825291909152205490565b6104156103ee366004611284565b60066020526000908152604090208054600182015460028301546003909301549192909184565b6040805194855260208501939093529183015260608201526080016101c9565b610448610443366004611284565b610ddb565b6040516101c991906116e6565b610288610463366004611284565b610ecd565b606060038054610477906116f9565b80601f01602080910402602001604051908101604052809291908181526020018280546104a3906116f9565b80156104f05780601f106104c5576101008083540402835291602001916104f0565b820191906000526020600020905b8154815290600101906020018083116104d357829003601f168201915b5050505050905090565b600033610508818585610f0b565b60019150505b92915050565b606060078054806020026020016040519081016040528092919081815260200182805480156104f057602002820191906000526020600020905b81548152602001906001019080831161054e575050505050905090565b60405162461bcd60e51b815260206004820152603060248201527f52657075746174696f6e20746f6b656e732063616e6e6f74206265207472616e60448201526f73666572726564206469726563746c7960801b60648201526000906084015b60405180910390fd5b6105dc610f1d565b6001600160a01b0383166106025760405162461bcd60e51b81526004016105cb90611733565b600082116106525760405162461bcd60e51b815260206004820152601d60248201527f416d6f756e74206d7573742062652067726561746572207468616e203000000060448201526064016105cb565b81610672846001600160a01b031660009081526020819052604090205490565b10156106c05760405162461bcd60e51b815260206004820152601f60248201527f496e73756666696369656e742072657075746174696f6e2062616c616e63650060448201526064016105cb565b6106ca8383610f4a565b6001600160a01b0383166000908152600660205260408120600181018054919285926106f7908490611777565b909155505042600282015560048101805460018101825560009182526020909120018390556040516001600160a01b038516907fe898cce79a7e9d2421a215a48d6c962d097f27956473b9b9a36682954885607f90610759908690869061178a565b60405180910390a250505050565b6007818154811061077757600080fd5b600091825260209091200154905081565b610790610f1d565b60008151116107e15760405162461bcd60e51b815260206004820181905260248201527f5468726573686f6c64732061727261792063616e6e6f7420626520656d70747960448201526064016105cb565b60015b815181101561089857816107f96001836117ab565b81518110610809576108096117be565b6020026020010151828281518110610823576108236117be565b6020026020010151116108865760405162461bcd60e51b815260206004820152602560248201527f5468726573686f6c6473206d75737420626520696e20617363656e64696e672060448201526437b93232b960d91b60648201526084016105cb565b80610890816117d4565b9150506107e4565b5080516108ac906007906020840190611208565b5050565b6108b8610f1d565b6108c26000610f80565b565b6108cc610f1d565b6001600160a01b0382166108f25760405162461bcd60e51b81526004016105cb90611733565b60008151116109435760405162461bcd60e51b815260206004820152601b60248201527f416368696576656d656e742063616e6e6f7420626520656d707479000000000060448201526064016105cb565b6001600160a01b038216600090815260066020908152604082206005018054600181018255908352912001610978828261183b565b50816001600160a01b03167fca8c9accce1ea9b1e88e76d666c26849f39052a6344521346b739cdd29ad4ae6826040516109b291906112ec565b60405180910390a25050565b6109f76040518060c001604052806000815260200160008152602001600081526020016000815260200160608152602001606081525090565b6001600160a01b038216600090815260066020908152604091829020825160c08101845281548152600182015481840152600282015481850152600382015460608201526004820180548551818602810186019096528086529194929360808601939290830182828015610a8a57602002820191906000526020600020905b815481526020019060010190808311610a76575b5050505050815260200160058201805480602002602001604051908101604052809291908181526020016000905b82821015610b64578382906000526020600020018054610ad7906116f9565b80601f0160208091040260200160405190810160405280929190818152602001828054610b03906116f9565b8015610b505780601f10610b2557610100808354040283529160200191610b50565b820191906000526020600020905b815481529060010190602001808311610b3357829003601f168201915b505050505081526020019060010190610ab8565b505050915250909392505050565b606060048054610477906116f9565b610b89610f1d565b6001600160a01b038316610baf5760405162461bcd60e51b81526004016105cb90611733565b60008211610bff5760405162461bcd60e51b815260206004820152601d60248201527f416d6f756e74206d7573742062652067726561746572207468616e203000000060448201526064016105cb565b610c098383610fd2565b6001600160a01b0383166000908152600660205260408120805490918491839190610c35908490611777565b909155505042600282015560048101805460018101825560009182526020822001849055610c7b6103a2866001600160a01b031660009081526020819052604090205490565b90508160030154811115610ccf57600382018190556040518181526001600160a01b038616907f91e51c29e7e87a74ad3b8ccba98538970f50a4309242735467f41e27c6b0fbac9060200160405180910390a25b846001600160a01b03167f20d1203ad04af96695a6de2e92289c50b68bd139de21fe5249b4ba5837fe297a8585604051610d0a92919061178a565b60405180910390a25050505050565b6001600160a01b038116600090815260066020908152604091829020600401805483518184028101840190945280845260609392830182828015610d7c57602002820191906000526020600020905b815481526020019060010190808311610d68575b50505050509050919050565b6007546000908190610d9c906001906117ab565b90505b60078181548110610db257610db26117be565b90600052602060002001548310610dc95792915050565b80610dd3816118fb565b915050610d9f565b6001600160a01b0381166000908152600660209081526040808320600501805482518185028101850190935280835260609492939192909184015b82821015610ec2578382906000526020600020018054610e35906116f9565b80601f0160208091040260200160405190810160405280929190818152602001828054610e61906116f9565b8015610eae5780601f10610e8357610100808354040283529160200191610eae565b820191906000526020600020905b815481529060010190602001808311610e9157829003601f168201915b505050505081526020019060010190610e16565b505050509050919050565b610ed5610f1d565b6001600160a01b038116610eff57604051631e4fbdf760e01b8152600060048201526024016105cb565b610f0881610f80565b50565b610f188383836001611008565b505050565b6005546001600160a01b031633146108c25760405163118cdaa760e01b81523360048201526024016105cb565b6001600160a01b038216610f7457604051634b637e8f60e11b8152600060048201526024016105cb565b6108ac826000836110de565b600580546001600160a01b038381166001600160a01b0319831681179093556040519116919082907f8be0079c531659141344cd1fd0a4f28419497f9722a3daafe3b4186f6b6457e090600090a35050565b6001600160a01b038216610ffc5760405163ec442f0560e01b8152600060048201526024016105cb565b6108ac600083836110de565b6001600160a01b0384166110325760405163e602df0560e01b8152600060048201526024016105cb565b6001600160a01b03831661105c57604051634a1406b160e11b8152600060048201526024016105cb565b6001600160a01b03808516600090815260016020908152604080832093871683529290522082905580156110d857826001600160a01b0316846001600160a01b03167f8c5be1e5ebec7d5bd14f71427d1e84f3dd0314c0f7b2291e5b200ac8c7c3b925846040516110cf91815260200190565b60405180910390a35b50505050565b6001600160a01b0383166111095780600260008282546110fe9190611777565b9091555061117b9050565b6001600160a01b0383166000908152602081905260409020548181101561115c5760405163391434e360e21b81526001600160a01b038516600482015260248101829052604481018390526064016105cb565b6001600160a01b03841660009081526020819052604090209082900390555b6001600160a01b038216611197576002805482900390556111b6565b6001600160a01b03821660009081526020819052604090208054820190555b816001600160a01b0316836001600160a01b03167fddf252ad1be2c89b69c2b068fc378daa952ba7f163c4a11628f55a4df523b3ef836040516111fb91815260200190565b60405180910390a3505050565b828054828255906000526020600020908101928215611243579160200282015b82811115611243578251825591602001919060010190611228565b5061124f929150611253565b5090565b5b8082111561124f5760008155600101611254565b80356001600160a01b038116811461127f57600080fd5b919050565b60006020828403121561129657600080fd5b61129f82611268565b9392505050565b6000815180845260005b818110156112cc576020818501810151868301820152016112b0565b506000602082860101526020601f19601f83011685010191505092915050565b60208152600061129f60208301846112a6565b6000806040838503121561131257600080fd5b61131b83611268565b946020939093013593505050565b6020808252825182820181905260009190848201906040850190845b8181101561136157835183529284019291840191600101611345565b50909695505050505050565b60008060006060848603121561138257600080fd5b61138b84611268565b925061139960208501611268565b9150604084013590509250925092565b634e487b7160e01b600052604160045260246000fd5b604051601f8201601f1916810167ffffffffffffffff811182821017156113e8576113e86113a9565b604052919050565b600082601f83011261140157600080fd5b813567ffffffffffffffff81111561141b5761141b6113a9565b61142e601f8201601f19166020016113bf565b81815284602083860101111561144357600080fd5b816020850160208301376000918101602001919091529392505050565b60008060006060848603121561147557600080fd5b61147e84611268565b925060208401359150604084013567ffffffffffffffff8111156114a157600080fd5b6114ad868287016113f0565b9150509250925092565b6000602082840312156114c957600080fd5b5035919050565b600060208083850312156114e357600080fd5b823567ffffffffffffffff808211156114fb57600080fd5b818501915085601f83011261150f57600080fd5b813581811115611521576115216113a9565b8060051b91506115328483016113bf565b818152918301840191848101908884111561154c57600080fd5b938501935b8385101561156a57843582529385019390850190611551565b98975050505050505050565b6000806040838503121561158957600080fd5b61159283611268565b9150602083013567ffffffffffffffff8111156115ae57600080fd5b6115ba858286016113f0565b9150509250929050565b600081518084526020808501808196508360051b8101915082860160005b8581101561160c5782840389526115fa8483516112a6565b988501989350908401906001016115e2565b5091979650505050505050565b6000602080835260e083018451828501528185015160408501526040850151606085015260608501516080850152608085015160c060a0860152818151808452610100870191508483019350600092505b8083101561168a578351825292840192600192909201919084019061166a565b5060a0870151868203601f190160c088015293506116a881856115c4565b979650505050505050565b600080604083850312156116c657600080fd5b6116cf83611268565b91506116dd60208401611268565b90509250929050565b60208152600061129f60208301846115c4565b600181811c9082168061170d57607f821691505b60208210810361172d57634e487b7160e01b600052602260045260246000fd5b50919050565b602080825260149082015273496e76616c69642075736572206164647265737360601b604082015260600190565b634e487b7160e01b600052601160045260246000fd5b8082018082111561050e5761050e611761565b8281526040602082015260006117a360408301846112a6565b949350505050565b8181038181111561050e5761050e611761565b634e487b7160e01b600052603260045260246000fd5b6000600182016117e6576117e6611761565b5060010190565b601f821115610f1857600081815260208120601f850160051c810160208610156118145750805b601f850160051c820191505b8181101561183357828155600101611820565b505050505050565b815167ffffffffffffffff811115611855576118556113a9565b6118698161186384546116f9565b846117ed565b602080601f83116001811461189e57600084156118865750858301515b600019600386901b1c1916600185901b178555611833565b600085815260208120601f198616915b828110156118cd578886015182559484019460019091019084016118ae565b50858210156118eb5787850151600019600388901b60f8161c191681555b5050505050600190811b01905550565b60008161190a5761190a611761565b50600019019056fea26469706673582212200db3ef6eba7efb6846747c88adb6b3304cd4445ce74f712bed1fb029c0048f4364736f6c63430008140033",
  "linkReferences": {},
  "deployedLinkReferences": {}
}