{
  "_format": "hh-sol-artifact-1",
  "contractName": "AIIdentity",
  "sourceName": "contracts/AIIdentity.sol",
  "abi": [
    {
      "inputs": [],
      "stateMutability": "nonpayable",
      "type": "constructor"
    },
    {
      "inputs": [
        {
          "internalType": "address",
          "name": "sender",
          "type": "address"
        },
        {
          "internalType": "uint256",
          "name": "tokenId",
          "type": "uint256"
        },
        {
          "internalType": "address",
          "name": "owner",
          "type": "address"
        }
      ],
      "name": "ERC721IncorrectOwner",
      "type": "error"
    },
    {
      "inputs": [
        {
          "internalType": "address",
          "name": "operator",
          "type": "address"
        },
        {
          "internalType": "uint256",
          "name": "tokenId",
          "type": "uint256"
        }
      ],
      "name": "ERC721InsufficientApproval",
      "type": "error"
    },
    {
      "inputs": [
        {
          "internalType": "address",
          "name": "approver",
          "type": "address"
        }
      ],
      "name": "ERC721InvalidApprover",
      "type": "error"
    },
    {
      "inputs": [
        {
          "internalType": "address",
          "name": "operator",
          "type": "address"
        }
      ],
      "name": "ERC721InvalidOperator",
      "type": "error"
    },
    {
      "inputs": [
        {
          "internalType": "address",
          "name": "owner",
          "type": "address"
        }
      ],
      "name": "ERC721InvalidOwner",
      "type": "error"
    },
    {
      "inputs": [
        {
          "internalType": "address",
          "name": "receiver",
          "type": "address"
        }
      ],
      "name": "ERC721InvalidReceiver",
      "type": "error"
    },
    {
      "inputs": [
        {
          "internalType": "address",
          "name": "sender",
          "type": "address"
        }
      ],
      "name": "ERC721InvalidSender",
      "type": "error"
    },
    {
      "inputs": [
        {
          "internalType": "uint256",
          "name": "tokenId",
          "type": "uint256"
        }
      ],
      "name": "ERC721NonexistentToken",
      "type": "error"
    },
    {
      "inputs": [
        {
          "internalType": "address",
          "name": "owner",
          "type": "address"
        }
      ],
      "name": "OwnableInvalidOwner",
      "type": "error"
    },
    {
      "inputs": [
        {
          "internalType": "address",
          "name": "account",
          "type": "address"
        }
      ],
      "name": "OwnableUnauthorizedAccount",
      "type": "error"
    },
    {
      "anonymous": false,
      "inputs": [
        {
          "indexed": true,
          "internalType": "address",
          "name": "user",
          "type": "address"
        },
        {
          "indexed": true,
          "internalType": "uint256",
          "name": "tokenId",
          "type": "uint256"
        },
        {
          "indexed": false,
          "internalType": "string",
          "name": "name",
          "type": "string"
        }
      ],
      "name": "AITwinMinted",
      "type": "event"
    },
    {
      "anonymous": false,
      "inputs": [
        {
          "indexed": true,
          "internalType": "uint256",
          "name": "tokenId",
          "type": "uint256"
        },
        {
          "indexed": false,
          "internalType": "string",
          "name": "name",
          "type": "string"
        },
        {
          "indexed": false,
          "internalType": "string",
          "name": "personality",
          "type": "string"
        }
      ],
      "name": "AITwinUpdated",
      "type": "event"
    },
    {
      "anonymous": false,
      "inputs": [
        {
          "indexed": true,
          "internalType": "address",
          "name": "owner",
          "type": "address"
        },
        {
          "indexed": true,
          "internalType": "address",
          "name": "approved",
          "type": "address"
        },
        {
          "indexed": true,
          "internalType": "uint256",
          "name": "tokenId",
          "type": "uint256"
        }
      ],
      "name": "Approval",
      "type": "event"
    },
    {
      "anonymous": false,
      "inputs": [
        {
          "indexed": true,
          "internalType": "address",
          "name": "owner",
          "type": "address"
        },
        {
          "indexed": true,
          "internalType": "address",
          "name": "operator",
          "type": "address"
        },
        {
          "indexed": false,
          "internalType": "bool",
          "name": "approved",
          "type": "bool"
        }
      ],
      "name": "ApprovalForAll",
      "type": "event"
    },
    {
      "anonymous": false,
      "inputs": [
        {
          "indexed": true,
          "internalType": "address",
          "name": "previousOwner",
          "type": "address"
        },
        {
          "indexed": true,
          "internalType": "address",
          "name": "newOwner",
          "type": "address"
        }
      ],
      "name": "OwnershipTransferred",
      "type": "event"
    },
    {
      "anonymous": false,
      "inputs": [
        {
          "indexed": true,
          "internalType": "uint256",
          "name": "tokenId",
          "type": "uint256"
        },
        {
          "indexed": false,
          "internalType": "uint256",
          "name": "newReputation",
          "type": "uint256"
        }
      ],
      "name": "ReputationUpdated",
      "type": "event"
    },
    {
      "anonymous": false,
      "inputs": [
        {
          "indexed": true,
          "internalType": "address",
          "name": "from",
          "type": "address"
        },
        {
          "indexed": true,
          "internalType": "address",
          "name": "to",
          "type": "address"
        },
        {
          "indexed": true,
          "internalType": "uint256",
          "name": "tokenId",
          "type": "uint256"
        }
      ],
      "name": "Transfer",
      "type": "event"
    },
    {
      "inputs": [
        {
          "internalType": "uint256",
          "name": "tokenId",
          "type": "uint256"
        },
        {
          "internalType": "uint256",
          "name": "score",
          "type": "uint256"
        }
      ],
      "name": "addActivityScore",
      "outputs": [],
      "stateMutability": "nonpayable",
      "type": "function"
    },
    {
      "inputs": [
        {
          "internalType": "uint256",
          "name": "",
          "type": "uint256"
        }
      ],
      "name": "aiTwinData",
      "outputs": [
        {
          "internalType": "string",
          "name": "name",
          "type": "string"
        },
        {
          "internalType": "string",
          "name": "personality",
          "type": "string"
        },
        {
          "internalType": "uint256",
          "name": "reputation",
          "type": "uint256"
        },
        {
          "internalType": "uint256",
          "name": "createdAt",
          "type": "uint256"
        },
        {
          "internalType": "uint256",
          "name": "lastInteraction",
          "type": "uint256"
        }
      ],
      "stateMutability": "view",
      "type": "function"
    },
    {
      "inputs": [
        {
          "internalType": "address",
          "name": "to",
          "type": "address"
        },
        {
          "internalType": "uint256",
          "name": "tokenId",
          "type": "uint256"
        }
      ],
      "name": "approve",
      "outputs": [],
      "stateMutability": "nonpayable",
      "type": "function"
    },
    {
      "inputs": [
        {
          "internalType": "address",
          "name": "owner",
          "type": "address"
        }
      ],
      "name": "balanceOf",
      "outputs": [
        {
          "internalType": "uint256",
          "name": "",
          "type": "uint256"
        }
      ],
      "stateMutability": "view",
      "type": "function"
    },
    {
      "inputs": [
        {
          "internalType": "uint256",
          "name": "tokenId",
          "type": "uint256"
        }
      ],
      "name": "getAITwinData",
      "outputs": [
        {
          "components": [
            {
              "internalType": "string",
              "name": "name",
              "type": "string"
            },
            {
              "internalType": "string",
              "name": "personality",
              "type": "string"
            },
            {
              "internalType": "uint256",
              "name": "reputation",
              "type": "uint256"
            },
            {
              "internalType": "uint256",
              "name": "createdAt",
              "type": "uint256"
            },
            {
              "internalType": "uint256",
              "name": "lastInteraction",
              "type": "uint256"
            },
            {
              "internalType": "string[]",
              "name": "traits",
              "type": "string[]"
            },
            {
              "internalType": "uint256[]",
              "name": "activityScores",
              "type": "uint256[]"
            }
          ],
          "internalType": "struct AIIdentity.AITwinData",
          "name": "",
          "type": "tuple"
        }
      ],
      "stateMutability": "view",
      "type": "function"
    },
    {
      "inputs": [
        {
          "internalType": "uint256",
          "name": "tokenId",
          "type": "uint256"
        }
      ],
      "name": "getApproved",
      "outputs": [
        {
          "internalType": "address",
          "name": "",
          "type": "address"
        }
      ],
      "stateMutability": "view",
      "type": "function"
    },
    {
      "inputs": [
        {
          "internalType": "address",
          "name": "user",
          "type": "address"
        }
      ],
      "name": "getUserAITwinId",
      "outputs": [
        {
          "internalType": "uint256",
          "name": "",
          "type": "uint256"
        }
      ],
      "stateMutability": "view",
      "type": "function"
    },
    {
      "inputs": [
        {
          "internalType": "address",
          "name": "user",
          "type": "address"
        }
      ],
      "name": "hasAITwin",
      "outputs": [
        {
          "internalType": "bool",
          "name": "",
          "type": "bool"
        }
      ],
      "stateMutability": "view",
      "type": "function"
    },
    {
      "inputs": [
        {
          "internalType": "address",
          "name": "owner",
          "type": "address"
        },
        {
          "internalType": "address",
          "name": "operator",
          "type": "address"
        }
      ],
      "name": "isApprovedForAll",
      "outputs": [
        {
          "internalType": "bool",
          "name": "",
          "type": "bool"
        }
      ],
      "stateMutability": "view",
      "type": "function"
    },
    {
      "inputs": [
        {
          "internalType": "address",
          "name": "user",
          "type": "address"
        },
        {
          "internalType": "string",
          "name": "name",
          "type": "string"
        },
        {
          "internalType": "string",
          "name": "personality",
          "type": "string"
        },
        {
          "internalType": "string[]",
          "name": "traits",
          "type": "string[]"
        }
      ],
      "name": "mintAITwin",
      "outputs": [
        {
          "internalType": "uint256",
          "name": "",
          "type": "uint256"
        }
      ],
      "stateMutability": "nonpayable",
      "type": "function"
    },
    {
      "inputs": [],
      "name": "name",
      "outputs": [
        {
          "internalType": "string",
          "name": "",
          "type": "string"
        }
      ],
      "stateMutability": "view",
      "type": "function"
    },
    {
      "inputs": [],
      "name": "owner",
      "outputs": [
        {
          "internalType": "address",
          "name": "",
          "type": "address"
        }
      ],
      "stateMutability": "view",
      "type": "function"
    },
    {
      "inputs": [
        {
          "internalType": "uint256",
          "name": "tokenId",
          "type": "uint256"
        }
      ],
      "name": "ownerOf",
      "outputs": [
        {
          "internalType": "address",
          "name": "",
          "type": "address"
        }
      ],
      "stateMutability": "view",
      "type": "function"
    },
    {
      "inputs": [],
      "name": "renounceOwnership",
      "outputs": [],
      "stateMutability": "nonpayable",
      "type": "function"
    },
    {
      "inputs": [
        {
          "internalType": "address",
          "name": "from",
          "type": "address"
        },
        {
          "internalType": "address",
          "name": "to",
          "type": "address"
        },
        {
          "internalType": "uint256",
          "name": "tokenId",
          "type": "uint256"
        }
      ],
      "name": "safeTransferFrom",
      "outputs": [],
      "stateMutability": "nonpayable",
      "type": "function"
    },
    {
      "inputs": [
        {
          "internalType": "address",
          "name": "from",
          "type": "address"
        },
        {
          "internalType": "address",
          "name": "to",
          "type": "address"
        },
        {
          "internalType": "uint256",
          "name": "tokenId",
          "type": "uint256"
        },
        {
          "internalType": "bytes",
          "name": "data",
          "type": "bytes"
        }
      ],
      "name": "safeTransferFrom",
      "outputs": [],
      "stateMutability": "nonpayable",
      "type": "function"
    },
    {
      "inputs": [
        {
          "internalType": "address",
          "name": "operator",
          "type": "address"
        },
        {
          "internalType": "bool",
          "name": "approved",
          "type": "bool"
        }
      ],
      "name": "setApprovalForAll",
      "outputs": [],
      "stateMutability": "nonpayable",
      "type": "function"
    },
    {
      "inputs": [
        {
          "internalType": "bytes4",
          "name": "interfaceId",
          "type": "bytes4"
        }
      ],
      "name": "supportsInterface",
      "outputs": [
        {
          "internalType": "bool",
          "name": "",
          "type": "bool"
        }
      ],
      "stateMutability": "view",
      "type": "function"
    },
    {
      "inputs": [],
      "name": "symbol",
      "outputs": [
        {
          "internalType": "string",
          "name": "",
          "type": "string"
        }
      ],
      "stateMutability": "view",
      "type": "function"
    },
    {
      "inputs": [
        {
          "internalType": "uint256",
          "name": "",
          "type": "uint256"
        }
      ],
      "name": "tokenIdToUser",
      "outputs": [
        {
          "internalType": "address",
          "name": "",
          "type": "address"
        }
      ],
      "stateMutability": "view",
      "type": "function"
    },
    {
      "inputs": [
        {
          "internalType": "uint256",
          "name": "tokenId",
          "type": "uint256"
        }
      ],
      "name": "tokenURI",
      "outputs": [
        {
          "internalType": "string",
          "name": "",
          "type": "string"
        }
      ],
      "stateMutability": "view",
      "type": "function"
    },
    {
      "inputs": [],
      "name": "totalSupply",
      "outputs": [
        {
          "internalType": "uint256",
          "name": "",
          "type": "uint256"
        }
      ],
      "stateMutability": "view",
      "type": "function"
    },
    {
      "inputs": [
        {
          "internalType": "address",
          "name": "from",
          "type": "address"
        },
        {
          "internalType": "address",
          "name": "to",
          "type": "address"
        },
        {
          "internalType": "uint256",
          "name": "tokenId",
          "type": "uint256"
        }
      ],
      "name": "transferFrom",
      "outputs": [],
      "stateMutability": "nonpayable",
      "type": "function"
    },
    {
      "inputs": [
        {
          "internalType": "address",
          "name": "newOwner",
          "type": "address"
        }
      ],
      "name": "transferOwnership",
      "outputs": [],
      "stateMutability": "nonpayable",
      "type": "function"
    },
    {
      "inputs": [
        {
          "internalType": "uint256",
          "name": "tokenId",
          "type": "uint256"
        },
        {
          "internalType": "string",
          "name": "name",
          "type": "string"
        },
        {
          "internalType": "string",
          "name": "personality",
          "type": "string"
        },
        {
          "internalType": "string[]",
          "name": "traits",
          "type": "string[]"
        }
      ],
      "name": "updateAITwin",
      "outputs": [],
      "stateMutability": "nonpayable",
      "type": "function"
    },
    {
      "inputs": [
        {
          "internalType": "uint256",
          "name": "tokenId",
          "type": "uint256"
        },
        {
          "internalType": "uint256",
          "name": "newReputation",
          "type": "uint256"
        }
      ],
      "name": "updateReputation",
      "outputs": [],
      "stateMutability": "nonpayable",
      "type": "function"
    },
    {
      "inputs": [
        {
          "internalType": "address",
          "name": "",
          "type": "address"
        }
      ],
      "name": "userToTokenId",
      "outputs": [
        {
          "internalType": "uint256",
          "name": "",
          "type": "uint256"
        }
      ],
      "stateMutability": "view",
      "type": "function"
    }
  ],
  "bytecode": "0x60806040523480156200001157600080fd5b50336040518060400160405280601381526020017f4f6e636861696e4d696e64204149205477696e000000000000000000000000008152506040518060400160405280600681526020016520a4aa2ba4a760d11b8152508160009081620000799190620001c3565b506001620000888282620001c3565b5050506001600160a01b038116620000ba57604051631e4fbdf760e01b81526000600482015260240160405180910390fd5b620000c581620000cc565b506200028f565b600680546001600160a01b038381166001600160a01b0319831681179093556040519116919082907f8be0079c531659141344cd1fd0a4f28419497f9722a3daafe3b4186f6b6457e090600090a35050565b634e487b7160e01b600052604160045260246000fd5b600181811c908216806200014957607f821691505b6020821081036200016a57634e487b7160e01b600052602260045260246000fd5b50919050565b601f821115620001be57600081815260208120601f850160051c81016020861015620001995750805b601f850160051c820191505b81811015620001ba57828155600101620001a5565b5050505b505050565b81516001600160401b03811115620001df57620001df6200011e565b620001f781620001f0845462000134565b8462000170565b602080601f8311600181146200022f5760008415620002165750858301515b600019600386901b1c1916600185901b178555620001ba565b600085815260208120601f198616915b8281101562000260578886015182559484019460019091019084016200023f565b50858210156200027f5787850151600019600388901b60f8161c191681555b5050505050600190811b01905550565b61212d806200029f6000396000f3fe608060405234801561001057600080fd5b50600436106101a95760003560e01c80638da5cb5b116100f9578063d2cc5bb411610097578063e948615211610071578063e9486152146103d4578063e985e9c5146103e7578063f2fde38b146103fa578063fd764f221461040d57600080fd5b8063d2cc5bb414610374578063d8edc05c14610387578063e1b53cab146103b057600080fd5b8063a22cb465116100d3578063a22cb4651461031b578063af24b07b1461032e578063b88d4fde1461034e578063c87b56dd1461036157600080fd5b80638da5cb5b146102d757806395d89b41146102e85780639797c0f4146102f057600080fd5b806323b872dd116101665780636352211e116101405780636352211e146102965780636bf711c4146102a957806370a08231146102bc578063715018a6146102cf57600080fd5b806323b872dd14610250578063256068481461026357806342842e0e1461028357600080fd5b806301ffc9a7146101ae5780630675f763146101d657806306fdde03146101eb578063081812fc14610200578063095ea7b31461022b57806318160ddd1461023e575b600080fd5b6101c16101bc3660046118ca565b610436565b60405190151581526020015b60405180910390f35b6101e96101e43660046118e7565b610488565b005b6101f3610528565b6040516101cd9190611959565b61021361020e36600461196c565b6105ba565b6040516001600160a01b0390911681526020016101cd565b6101e96102393660046119a1565b6105e3565b6007545b6040519081526020016101cd565b6101e961025e3660046119cb565b6105f2565b61027661027136600461196c565b61067d565b6040516101cd9190611a42565b6101e96102913660046119cb565b610983565b6102136102a436600461196c565b6109a3565b6102426102b7366004611c7c565b6109ae565b6102426102ca366004611d15565b610c1c565b6101e9610c64565b6006546001600160a01b0316610213565b6101f3610c78565b6101c16102fe366004611d15565b6001600160a01b0316600090815260086020526040902054151590565b6101e9610329366004611d30565b610c87565b61024261033c366004611d15565b60086020526000908152604090205481565b6101e961035c366004611d6c565b610c92565b6101f361036f36600461196c565b610caa565b6101e9610382366004611ddc565b610d12565b610242610395366004611d15565b6001600160a01b031660009081526008602052604090205490565b6103c36103be36600461196c565b610e47565b6040516101cd959493929190611e11565b6101e96103e23660046118e7565b610f85565b6101c16103f5366004611e54565b610ff7565b6101e9610408366004611d15565b611025565b61021361041b36600461196c565b6009602052600090815260409020546001600160a01b031681565b60006001600160e01b031982166380ac58cd60e01b148061046757506001600160e01b03198216635b5e139f60e01b145b8061048257506301ffc9a760e01b6001600160e01b03198316145b92915050565b610490611063565b6000828152600260205260409020546001600160a01b03166104cd5760405162461bcd60e51b81526004016104c490611e87565b60405180910390fd5b6000828152600a60205260409081902060028101839055426004909101555182907ea4f8488cd701f9a77136eb5c91d5e2edef3c38001ca7148525acf8a26264819061051c9084815260200190565b60405180910390a25050565b60606000805461053790611eb5565b80601f016020809104026020016040519081016040528092919081815260200182805461056390611eb5565b80156105b05780601f10610585576101008083540402835291602001916105b0565b820191906000526020600020905b81548152906001019060200180831161059357829003601f168201915b5050505050905090565b60006105c582611090565b506000828152600460205260409020546001600160a01b0316610482565b6105ee8282336110c9565b5050565b6001600160a01b03821661061c57604051633250574960e11b8152600060048201526024016104c4565b60006106298383336110d6565b9050836001600160a01b0316816001600160a01b031614610677576040516364283d7b60e01b81526001600160a01b03808616600483015260248201849052821660448201526064016104c4565b50505050565b6106bd6040518060e00160405280606081526020016060815260200160008152602001600081526020016000815260200160608152602001606081525090565b6000828152600260205260409020546001600160a01b03166106f15760405162461bcd60e51b81526004016104c490611e87565b6000828152600a602052604090819020815160e0810190925280548290829061071990611eb5565b80601f016020809104026020016040519081016040528092919081815260200182805461074590611eb5565b80156107925780601f1061076757610100808354040283529160200191610792565b820191906000526020600020905b81548152906001019060200180831161077557829003601f168201915b505050505081526020016001820180546107ab90611eb5565b80601f01602080910402602001604051908101604052809291908181526020018280546107d790611eb5565b80156108245780601f106107f957610100808354040283529160200191610824565b820191906000526020600020905b81548152906001019060200180831161080757829003601f168201915b5050505050815260200160028201548152602001600382015481526020016004820154815260200160058201805480602002602001604051908101604052809291908181526020016000905b8282101561091c57838290600052602060002001805461088f90611eb5565b80601f01602080910402602001604051908101604052809291908181526020018280546108bb90611eb5565b80156109085780601f106108dd57610100808354040283529160200191610908565b820191906000526020600020905b8154815290600101906020018083116108eb57829003601f168201915b505050505081526020019060010190610870565b5050505081526020016006820180548060200260200160405190810160405280929190818152602001828054801561097357602002820191906000526020600020905b81548152602001906001019080831161095f575b5050505050815250509050919050565b61099e83838360405180602001604052806000815250610c92565b505050565b600061048282611090565b60006109b8611063565b6001600160a01b038516610a055760405162461bcd60e51b8152602060048201526014602482015273496e76616c69642075736572206164647265737360601b60448201526064016104c4565b6001600160a01b03851660009081526008602052604090205415610a6b5760405162461bcd60e51b815260206004820152601b60248201527f5573657220616c72656164792068617320616e204149205477696e000000000060448201526064016104c4565b6000845111610ab35760405162461bcd60e51b81526020600482015260146024820152734e616d652063616e6e6f7420626520656d70747960601b60448201526064016104c4565b60078054906000610ac383611eef565b9091555050600754610ad586826111cf565b6001600160a01b03861660008181526008602090815260408083208590558483526009825280832080546001600160a01b031916909417909355825160e0810184528881528082018890526064818501524260608201819052608082015260a081018790528351838152808301855260c0820152848352600a90915291902081518190610b629082611f5c565b5060208201516001820190610b779082611f5c565b5060408201516002820155606082015160038201556080820151600482015560a08201518051610bb19160058401916020909101906117ab565b5060c08201518051610bcd916006840191602090910190611801565b5090505080866001600160a01b03167f828152517973f5f55f64fa6ebc94b25d29fbd9c35475149d5a781054bc6e989387604051610c0b9190611959565b60405180910390a395945050505050565b60006001600160a01b038216610c48576040516322718ad960e21b8152600060048201526024016104c4565b506001600160a01b031660009081526003602052604090205490565b610c6c611063565b610c766000611234565b565b60606001805461053790611eb5565b6105ee338383611286565b610c9d8484846105f2565b6106773385858585611325565b6060610cb582611090565b506000610cc0611450565b90506000815111610ce05760405180602001604052806000815250610d0b565b80610cea84611470565b604051602001610cfb92919061201c565b6040516020818303038152906040525b9392505050565b6000848152600260205260409020546001600160a01b0316610d465760405162461bcd60e51b81526004016104c490611e87565b33610d50856109a3565b6001600160a01b03161480610d6f57506006546001600160a01b031633145b610dac5760405162461bcd60e51b815260206004820152600e60248201526d139bdd08185d5d1a1bdc9a5e995960921b60448201526064016104c4565b6000848152600a60205260409020610dc48482611f5c565b506000848152600a60205260409020600101610de08382611f5c565b506000848152600a602090815260409091208251610e06926005909201918401906117ab565b50837f185153321ccaf6a44b08667ca94d43b94d5b0beaf6a30acec7f51482f25d3fe38484604051610e3992919061204b565b60405180910390a250505050565b600a60205260009081526040902080548190610e6290611eb5565b80601f0160208091040260200160405190810160405280929190818152602001828054610e8e90611eb5565b8015610edb5780601f10610eb057610100808354040283529160200191610edb565b820191906000526020600020905b815481529060010190602001808311610ebe57829003601f168201915b505050505090806001018054610ef090611eb5565b80601f0160208091040260200160405190810160405280929190818152602001828054610f1c90611eb5565b8015610f695780601f10610f3e57610100808354040283529160200191610f69565b820191906000526020600020905b815481529060010190602001808311610f4c57829003601f168201915b5050505050908060020154908060030154908060040154905085565b610f8d611063565b6000828152600260205260409020546001600160a01b0316610fc15760405162461bcd60e51b81526004016104c490611e87565b6000828152600a602090815260408220600681018054600181018255908452918320909101929092559190915242600490910155565b6001600160a01b03918216600090815260056020908152604080832093909416825291909152205460ff1690565b61102d611063565b6001600160a01b03811661105757604051631e4fbdf760e01b8152600060048201526024016104c4565b61106081611234565b50565b6006546001600160a01b03163314610c765760405163118cdaa760e01b81523360048201526024016104c4565b6000818152600260205260408120546001600160a01b03168061048257604051637e27328960e01b8152600481018490526024016104c4565b61099e8383836001611503565b6000828152600260205260408120546001600160a01b039081169083161561110357611103818486611609565b6001600160a01b0381161561114157611120600085600080611503565b6001600160a01b038116600090815260036020526040902080546000190190555b6001600160a01b03851615611170576001600160a01b0385166000908152600360205260409020805460010190555b60008481526002602052604080822080546001600160a01b0319166001600160a01b0389811691821790925591518793918516917fddf252ad1be2c89b69c2b068fc378daa952ba7f163c4a11628f55a4df523b3ef91a4949350505050565b6001600160a01b0382166111f957604051633250574960e11b8152600060048201526024016104c4565b6000611207838360006110d6565b90506001600160a01b0381161561099e576040516339e3563760e11b8152600060048201526024016104c4565b600680546001600160a01b038381166001600160a01b0319831681179093556040519116919082907f8be0079c531659141344cd1fd0a4f28419497f9722a3daafe3b4186f6b6457e090600090a35050565b6001600160a01b0382166112b857604051630b61174360e31b81526001600160a01b03831660048201526024016104c4565b6001600160a01b03838116600081815260056020908152604080832094871680845294825291829020805460ff191686151590811790915591519182527f17307eab39ab6107e8899845ad3d59bd9653f200f220920489ca2b5937696c31910160405180910390a3505050565b6001600160a01b0383163b1561144957604051630a85bd0160e11b81526001600160a01b0384169063150b7a0290611367908890889087908790600401612079565b6020604051808303816000875af19250505080156113a2575060408051601f3d908101601f1916820190925261139f918101906120b6565b60015b61140b573d8080156113d0576040519150601f19603f3d011682016040523d82523d6000602084013e6113d5565b606091505b50805160000361140357604051633250574960e11b81526001600160a01b03851660048201526024016104c4565b805160208201fd5b6001600160e01b03198116630a85bd0160e11b1461144757604051633250574960e11b81526001600160a01b03851660048201526024016104c4565b505b5050505050565b60606040518060600160405280602481526020016120d460249139905090565b6060600061147d8361166d565b600101905060008167ffffffffffffffff81111561149d5761149d611b1e565b6040519080825280601f01601f1916602001820160405280156114c7576020820181803683370190505b5090508181016020015b600019016f181899199a1a9b1b9c1cb0b131b232b360811b600a86061a8153600a85049450846114d157509392505050565b808061151757506001600160a01b03821615155b156115d957600061152784611090565b90506001600160a01b038316158015906115535750826001600160a01b0316816001600160a01b031614155b801561156657506115648184610ff7565b155b1561158f5760405163a9fbf51f60e01b81526001600160a01b03841660048201526024016104c4565b81156115d75783856001600160a01b0316826001600160a01b03167f8c5be1e5ebec7d5bd14f71427d1e84f3dd0314c0f7b2291e5b200ac8c7c3b92560405160405180910390a45b505b5050600090815260046020526040902080546001600160a01b0319166001600160a01b0392909216919091179055565b611614838383611745565b61099e576001600160a01b03831661164257604051637e27328960e01b8152600481018290526024016104c4565b60405163177e802f60e01b81526001600160a01b0383166004820152602481018290526044016104c4565b60008072184f03e93ff9f4daa797ed6e38ed64bf6a1f0160401b83106116ac5772184f03e93ff9f4daa797ed6e38ed64bf6a1f0160401b830492506040015b6d04ee2d6d415b85acef810000000083106116d8576d04ee2d6d415b85acef8100000000830492506020015b662386f26fc1000083106116f657662386f26fc10000830492506010015b6305f5e100831061170e576305f5e100830492506008015b612710831061172257612710830492506004015b60648310611734576064830492506002015b600a83106104825760010192915050565b60006001600160a01b038316158015906117a35750826001600160a01b0316846001600160a01b0316148061177f575061177f8484610ff7565b806117a357506000828152600460205260409020546001600160a01b038481169116145b949350505050565b8280548282559060005260206000209081019282156117f1579160200282015b828111156117f157825182906117e19082611f5c565b50916020019190600101906117cb565b506117fd929150611848565b5090565b82805482825590600052602060002090810192821561183c579160200282015b8281111561183c578251825591602001919060010190611821565b506117fd929150611865565b808211156117fd57600061185c828261187a565b50600101611848565b5b808211156117fd5760008155600101611866565b50805461188690611eb5565b6000825580601f10611896575050565b601f0160209004906000526020600020908101906110609190611865565b6001600160e01b03198116811461106057600080fd5b6000602082840312156118dc57600080fd5b8135610d0b816118b4565b600080604083850312156118fa57600080fd5b50508035926020909101359150565b60005b8381101561192457818101518382015260200161190c565b50506000910152565b60008151808452611945816020860160208601611909565b601f01601f19169290920160200192915050565b602081526000610d0b602083018461192d565b60006020828403121561197e57600080fd5b5035919050565b80356001600160a01b038116811461199c57600080fd5b919050565b600080604083850312156119b457600080fd5b6119bd83611985565b946020939093013593505050565b6000806000606084860312156119e057600080fd5b6119e984611985565b92506119f760208501611985565b9150604084013590509250925092565b600081518084526020808501945080840160005b83811015611a3757815187529582019590820190600101611a1b565b509495945050505050565b60006020808352835160e082850152611a5f61010085018261192d565b905081850151601f1980868403016040870152611a7c838361192d565b92506040870151606087015260608701516080870152608087015160a087015260a08701519150808684030160c08701528282518085528585019150858160051b860101868501945060005b82811015611af45784878303018452611ae282875161192d565b95880195938801939150600101611ac8565b5060c08a01519650838982030160e08a0152611b108188611a07565b9a9950505050505050505050565b634e487b7160e01b600052604160045260246000fd5b604051601f8201601f1916810167ffffffffffffffff81118282101715611b5d57611b5d611b1e565b604052919050565b600067ffffffffffffffff831115611b7f57611b7f611b1e565b611b92601f8401601f1916602001611b34565b9050828152838383011115611ba657600080fd5b828260208301376000602084830101529392505050565b600082601f830112611bce57600080fd5b610d0b83833560208501611b65565b600082601f830112611bee57600080fd5b8135602067ffffffffffffffff80831115611c0b57611c0b611b1e565b8260051b611c1a838201611b34565b9384528581018301938381019088861115611c3457600080fd5b84880192505b85831015611c7057823584811115611c525760008081fd5b611c608a87838c0101611bbd565b8352509184019190840190611c3a565b98975050505050505050565b60008060008060808587031215611c9257600080fd5b611c9b85611985565b9350602085013567ffffffffffffffff80821115611cb857600080fd5b611cc488838901611bbd565b94506040870135915080821115611cda57600080fd5b611ce688838901611bbd565b93506060870135915080821115611cfc57600080fd5b50611d0987828801611bdd565b91505092959194509250565b600060208284031215611d2757600080fd5b610d0b82611985565b60008060408385031215611d4357600080fd5b611d4c83611985565b915060208301358015158114611d6157600080fd5b809150509250929050565b60008060008060808587031215611d8257600080fd5b611d8b85611985565b9350611d9960208601611985565b925060408501359150606085013567ffffffffffffffff811115611dbc57600080fd5b8501601f81018713611dcd57600080fd5b611d0987823560208401611b65565b60008060008060808587031215611df257600080fd5b84359350602085013567ffffffffffffffff80821115611cb857600080fd5b60a081526000611e2460a083018861192d565b8281036020840152611e36818861192d565b60408401969096525050606081019290925260809091015292915050565b60008060408385031215611e6757600080fd5b611e7083611985565b9150611e7e60208401611985565b90509250929050565b602080825260149082015273151bdad95b88191bd95cc81b9bdd08195e1a5cdd60621b604082015260600190565b600181811c90821680611ec957607f821691505b602082108103611ee957634e487b7160e01b600052602260045260246000fd5b50919050565b600060018201611f0f57634e487b7160e01b600052601160045260246000fd5b5060010190565b601f82111561099e57600081815260208120601f850160051c81016020861015611f3d5750805b601f850160051c820191505b8181101561144757828155600101611f49565b815167ffffffffffffffff811115611f7657611f76611b1e565b611f8a81611f848454611eb5565b84611f16565b602080601f831160018114611fbf5760008415611fa75750858301515b600019600386901b1c1916600185901b178555611447565b600085815260208120601f198616915b82811015611fee57888601518255948401946001909101908401611fcf565b508582101561200c5787850151600019600388901b60f8161c191681555b5050505050600190811b01905550565b6000835161202e818460208801611909565b835190830190612042818360208801611909565b01949350505050565b60408152600061205e604083018561192d565b8281036020840152612070818561192d565b95945050505050565b6001600160a01b03858116825284166020820152604081018390526080606082018190526000906120ac9083018461192d565b9695505050505050565b6000602082840312156120c857600080fd5b8151610d0b816118b456fe68747470733a2f2f6f6e636861696e6d696e642e636f6d2f6170692f61692d7477696e2fa264697066735822122087b8bc4e96ceacb82302f067a0f9b96bdc6acd6d91b048a319cbb31cd2b417b264736f6c63430008140033",
  "linkReferences": {},
  "deployedLinkReferences": {}
}