{
  "_format": "hh-sol-artifact-1",
  "contractName": "AIRegistry",
  "sourceName": "contracts/AIRegistry.sol",
  "abi": [
    {
      "inputs": [],
      "stateMutability": "nonpayable",
      "type": "constructor"
    },
    {
      "inputs": [
        {
          "internalType": "address",
          "name": "owner",
          "type": "address"
        }
      ],
      "name": "OwnableInvalidOwner",
      "type": "error"
    },
    {
      "inputs": [
        {
          "internalType": "address",
          "name": "account",
          "type": "address"
        }
      ],
      "name": "OwnableUnauthorizedAccount",
      "type": "error"
    },
    {
      "anonymous": false,
      "inputs": [
        {
          "indexed": true,
          "internalType": "uint256",
          "name": "tokenId",
          "type": "uint256"
        }
      ],
      "name": "AITwinActivated",
      "type": "event"
    },
    {
      "anonymous": false,
      "inputs": [
        {
          "indexed": true,
          "internalType": "uint256",
          "name": "tokenId",
          "type": "uint256"
        }
      ],
      "name": "AITwinDeactivated",
      "type": "event"
    },
    {
      "anonymous": false,
      "inputs": [
        {
          "indexed": true,
          "internalType": "uint256",
          "name": "tokenId",
          "type": "uint256"
        },
        {
          "indexed": true,
          "internalType": "address",
          "name": "owner",
          "type": "address"
        },
        {
          "indexed": false,
          "internalType": "string",
          "name": "name",
          "type": "string"
        }
      ],
      "name": "AITwinRegistered",
      "type": "event"
    },
    {
      "anonymous": false,
      "inputs": [
        {
          "indexed": true,
          "internalType": "uint256",
          "name": "tokenId",
          "type": "uint256"
        },
        {
          "indexed": false,
          "internalType": "string",
          "name": "name",
          "type": "string"
        },
        {
          "indexed": false,
          "internalType": "string",
          "name": "personality",
          "type": "string"
        }
      ],
      "name": "AITwinUpdated",
      "type": "event"
    },
    {
      "anonymous": false,
      "inputs": [
        {
          "indexed": true,
          "internalType": "address",
          "name": "previousOwner",
          "type": "address"
        },
        {
          "indexed": true,
          "internalType": "address",
          "name": "newOwner",
          "type": "address"
        }
      ],
      "name": "OwnershipTransferred",
      "type": "event"
    },
    {
      "anonymous": false,
      "inputs": [
        {
          "indexed": true,
          "internalType": "uint256",
          "name": "tokenId",
          "type": "uint256"
        },
        {
          "indexed": false,
          "internalType": "string",
          "name": "skill",
          "type": "string"
        }
      ],
      "name": "SkillAdded",
      "type": "event"
    },
    {
      "anonymous": false,
      "inputs": [
        {
          "indexed": true,
          "internalType": "uint256",
          "name": "tokenId",
          "type": "uint256"
        },
        {
          "indexed": false,
          "internalType": "string",
          "name": "connection",
          "type": "string"
        }
      ],
      "name": "SocialConnectionAdded",
      "type": "event"
    },
    {
      "inputs": [
        {
          "internalType": "uint256",
          "name": "tokenId",
          "type": "uint256"
        }
      ],
      "name": "activateAITwin",
      "outputs": [],
      "stateMutability": "nonpayable",
      "type": "function"
    },
    {
      "inputs": [
        {
          "internalType": "uint256",
          "name": "tokenId",
          "type": "uint256"
        },
        {
          "internalType": "uint256",
          "name": "activityScore",
          "type": "uint256"
        }
      ],
      "name": "addActivity",
      "outputs": [],
      "stateMutability": "nonpayable",
      "type": "function"
    },
    {
      "inputs": [
        {
          "internalType": "uint256",
          "name": "tokenId",
          "type": "uint256"
        },
        {
          "internalType": "string",
          "name": "skill",
          "type": "string"
        }
      ],
      "name": "addSkill",
      "outputs": [],
      "stateMutability": "nonpayable",
      "type": "function"
    },
    {
      "inputs": [
        {
          "internalType": "uint256",
          "name": "tokenId",
          "type": "uint256"
        },
        {
          "internalType": "string",
          "name": "connection",
          "type": "string"
        }
      ],
      "name": "addSocialConnection",
      "outputs": [],
      "stateMutability": "nonpayable",
      "type": "function"
    },
    {
      "inputs": [
        {
          "internalType": "uint256",
          "name": "",
          "type": "uint256"
        }
      ],
      "name": "aiTwinRegistry",
      "outputs": [
        {
          "internalType": "uint256",
          "name": "tokenId",
          "type": "uint256"
        },
        {
          "internalType": "address",
          "name": "owner",
          "type": "address"
        },
        {
          "internalType": "string",
          "name": "name",
          "type": "string"
        },
        {
          "internalType": "string",
          "name": "personality",
          "type": "string"
        },
        {
          "internalType": "string",
          "name": "avatar",
          "type": "string"
        },
        {
          "internalType": "uint256",
          "name": "reputation",
          "type": "uint256"
        },
        {
          "internalType": "uint256",
          "name": "level",
          "type": "uint256"
        },
        {
          "internalType": "uint256",
          "name": "createdAt",
          "type": "uint256"
        },
        {
          "internalType": "uint256",
          "name": "lastUpdated",
          "type": "uint256"
        },
        {
          "internalType": "bool",
          "name": "isActive",
          "type": "bool"
        }
      ],
      "stateMutability": "view",
      "type": "function"
    },
    {
      "inputs": [
        {
          "internalType": "uint256",
          "name": "",
          "type": "uint256"
        }
      ],
      "name": "allAITwins",
      "outputs": [
        {
          "internalType": "uint256",
          "name": "",
          "type": "uint256"
        }
      ],
      "stateMutability": "view",
      "type": "function"
    },
    {
      "inputs": [
        {
          "internalType": "uint256",
          "name": "tokenId",
          "type": "uint256"
        }
      ],
      "name": "deactivateAITwin",
      "outputs": [],
      "stateMutability": "nonpayable",
      "type": "function"
    },
    {
      "inputs": [
        {
          "internalType": "address",
          "name": "user",
          "type": "address"
        }
      ],
      "name": "getAITwinByUser",
      "outputs": [
        {
          "components": [
            {
              "internalType": "uint256",
              "name": "tokenId",
              "type": "uint256"
            },
            {
              "internalType": "address",
              "name": "owner",
              "type": "address"
            },
            {
              "internalType": "string",
              "name": "name",
              "type": "string"
            },
            {
              "internalType": "string",
              "name": "personality",
              "type": "string"
            },
            {
              "internalType": "string",
              "name": "avatar",
              "type": "string"
            },
            {
              "internalType": "string[]",
              "name": "traits",
              "type": "string[]"
            },
            {
              "internalType": "uint256",
              "name": "reputation",
              "type": "uint256"
            },
            {
              "internalType": "uint256",
              "name": "level",
              "type": "uint256"
            },
            {
              "internalType": "uint256",
              "name": "createdAt",
              "type": "uint256"
            },
            {
              "internalType": "uint256",
              "name": "lastUpdated",
              "type": "uint256"
            },
            {
              "internalType": "bool",
              "name": "isActive",
              "type": "bool"
            },
            {
              "internalType": "string[]",
              "name": "skills",
              "type": "string[]"
            },
            {
              "internalType": "uint256[]",
              "name": "activityHistory",
              "type": "uint256[]"
            },
            {
              "internalType": "string[]",
              "name": "socialConnections",
              "type": "string[]"
            }
          ],
          "internalType": "struct AIRegistry.AITwinMetadata",
          "name": "",
          "type": "tuple"
        }
      ],
      "stateMutability": "view",
      "type": "function"
    },
    {
      "inputs": [
        {
          "internalType": "uint256",
          "name": "tokenId",
          "type": "uint256"
        }
      ],
      "name": "getAITwinMetadata",
      "outputs": [
        {
          "components": [
            {
              "internalType": "uint256",
              "name": "tokenId",
              "type": "uint256"
            },
            {
              "internalType": "address",
              "name": "owner",
              "type": "address"
            },
            {
              "internalType": "string",
              "name": "name",
              "type": "string"
            },
            {
              "internalType": "string",
              "name": "personality",
              "type": "string"
            },
            {
              "internalType": "string",
              "name": "avatar",
              "type": "string"
            },
            {
              "internalType": "string[]",
              "name": "traits",
              "type": "string[]"
            },
            {
              "internalType": "uint256",
              "name": "reputation",
              "type": "uint256"
            },
            {
              "internalType": "uint256",
              "name": "level",
              "type": "uint256"
            },
            {
              "internalType": "uint256",
              "name": "createdAt",
              "type": "uint256"
            },
            {
              "internalType": "uint256",
              "name": "lastUpdated",
              "type": "uint256"
            },
            {
              "internalType": "bool",
              "name": "isActive",
              "type": "bool"
            },
            {
              "internalType": "string[]",
              "name": "skills",
              "type": "string[]"
            },
            {
              "internalType": "uint256[]",
              "name": "activityHistory",
              "type": "uint256[]"
            },
            {
              "internalType": "string[]",
              "name": "socialConnections",
              "type": "string[]"
            }
          ],
          "internalType": "struct AIRegistry.AITwinMetadata",
          "name": "",
          "type": "tuple"
        }
      ],
      "stateMutability": "view",
      "type": "function"
    },
    {
      "inputs": [
        {
          "internalType": "string",
          "name": "skill",
          "type": "string"
        }
      ],
      "name": "getAITwinsBySkill",
      "outputs": [
        {
          "internalType": "uint256[]",
          "name": "",
          "type": "uint256[]"
        }
      ],
      "stateMutability": "view",
      "type": "function"
    },
    {
      "inputs": [
        {
          "internalType": "string",
          "name": "trait",
          "type": "string"
        }
      ],
      "name": "getAITwinsByTrait",
      "outputs": [
        {
          "internalType": "uint256[]",
          "name": "",
          "type": "uint256[]"
        }
      ],
      "stateMutability": "view",
      "type": "function"
    },
    {
      "inputs": [],
      "name": "getAllAITwins",
      "outputs": [
        {
          "internalType": "uint256[]",
          "name": "",
          "type": "uint256[]"
        }
      ],
      "stateMutability": "view",
      "type": "function"
    },
    {
      "inputs": [],
      "name": "getTotalAITwins",
      "outputs": [
        {
          "internalType": "uint256",
          "name": "",
          "type": "uint256"
        }
      ],
      "stateMutability": "view",
      "type": "function"
    },
    {
      "inputs": [
        {
          "internalType": "address",
          "name": "user",
          "type": "address"
        }
      ],
      "name": "hasAITwin",
      "outputs": [
        {
          "internalType": "bool",
          "name": "",
          "type": "bool"
        }
      ],
      "stateMutability": "view",
      "type": "function"
    },
    {
      "inputs": [
        {
          "internalType": "string",
          "name": "",
          "type": "string"
        }
      ],
      "name": "nameToTokenId",
      "outputs": [
        {
          "internalType": "uint256",
          "name": "",
          "type": "uint256"
        }
      ],
      "stateMutability": "view",
      "type": "function"
    },
    {
      "inputs": [],
      "name": "owner",
      "outputs": [
        {
          "internalType": "address",
          "name": "",
          "type": "address"
        }
      ],
      "stateMutability": "view",
      "type": "function"
    },
    {
      "inputs": [
        {
          "internalType": "address",
          "name": "owner",
          "type": "address"
        },
        {
          "internalType": "string",
          "name": "name",
          "type": "string"
        },
        {
          "internalType": "string",
          "name": "personality",
          "type": "string"
        },
        {
          "internalType": "string",
          "name": "avatar",
          "type": "string"
        },
        {
          "internalType": "string[]",
          "name": "traits",
          "type": "string[]"
        },
        {
          "internalType": "string[]",
          "name": "skills",
          "type": "string[]"
        }
      ],
      "name": "registerAITwin",
      "outputs": [
        {
          "internalType": "uint256",
          "name": "",
          "type": "uint256"
        }
      ],
      "stateMutability": "nonpayable",
      "type": "function"
    },
    {
      "inputs": [],
      "name": "renounceOwnership",
      "outputs": [],
      "stateMutability": "nonpayable",
      "type": "function"
    },
    {
      "inputs": [
        {
          "internalType": "address",
          "name": "newOwner",
          "type": "address"
        }
      ],
      "name": "transferOwnership",
      "outputs": [],
      "stateMutability": "nonpayable",
      "type": "function"
    },
    {
      "inputs": [
        {
          "internalType": "uint256",
          "name": "tokenId",
          "type": "uint256"
        },
        {
          "internalType": "string",
          "name": "name",
          "type": "string"
        },
        {
          "internalType": "string",
          "name": "personality",
          "type": "string"
        },
        {
          "internalType": "string",
          "name": "avatar",
          "type": "string"
        },
        {
          "internalType": "string[]",
          "name": "traits",
          "type": "string[]"
        }
      ],
      "name": "updateAITwin",
      "outputs": [],
      "stateMutability": "nonpayable",
      "type": "function"
    },
    {
      "inputs": [
        {
          "internalType": "uint256",
          "name": "tokenId",
          "type": "uint256"
        },
        {
          "internalType": "uint256",
          "name": "newReputation",
          "type": "uint256"
        },
        {
          "internalType": "uint256",
          "name": "newLevel",
          "type": "uint256"
        }
      ],
      "name": "updateAITwinStats",
      "outputs": [],
      "stateMutability": "nonpayable",
      "type": "function"
    },
    {
      "inputs": [
        {
          "internalType": "address",
          "name": "",
          "type": "address"
        }
      ],
      "name": "userToAITwin",
      "outputs": [
        {
          "internalType": "uint256",
          "name": "",
          "type": "uint256"
        }
      ],
      "stateMutability": "view",
      "type": "function"
    }
  ],
  "bytecode": "0x60806040523480156200001157600080fd5b5033806200003957604051631e4fbdf760e01b81526000600482015260240160405180910390fd5b62000044816200004b565b506200009b565b600080546001600160a01b038381166001600160a01b0319831681178455604051919092169283917f8be0079c531659141344cd1fd0a4f28419497f9722a3daafe3b4186f6b6457e09190a35050565b612d6b80620000ab6000396000f3fe608060405234801561001057600080fd5b50600436106101425760003560e01c80638da5cb5b116100b8578063ddb4ee5d1161007c578063ddb4ee5d146102e3578063eef90d60146102f6578063f28482ac14610309578063f2fde38b14610329578063f65b95081461033c578063f7c342bb1461034f57600080fd5b80638da5cb5b1461023d5780639797c0f414610258578063b91b532214610293578063ce6fb663146102a5578063dd001254146102b857600080fd5b80635f25180e1161010a5780635f25180e146101d657806360a87c77146101e9578063674fd194146101fc578063704bacb21461020f578063715018a6146102225780638c24aeb41461022a57600080fd5b806306ea39b3146101475780631c6ecd421461015c5780632b59d88d146101855780633f645849146101985780634398d943146101ad575b600080fd5b61015a610155366004612423565b610362565b005b61016f61016a366004612485565b6104ba565b60405161017c919061258a565b60405180910390f35b61015a610193366004612773565b610a3b565b6101a0610c7d565b60405161017c9190612829565b6101c06101bb36600461286d565b610cd5565b60405161017c9a99989796959493929190612886565b6101a06101e436600461290b565b610ec9565b61015a6101f7366004612947565b611179565b61015a61020a366004612969565b6111e8565b61015a61021d36600461286d565b611249565b61015a6112f2565b6101a061023836600461290b565b611306565b6000546040516001600160a01b03909116815260200161017c565b610283610266366004612485565b6001600160a01b0316600090815260036020526040902054151590565b604051901515815260200161017c565b6001545b60405190815260200161017c565b6102976102b3366004612995565b6115ad565b6102976102c636600461290b565b805160208183018101805160048252928201919093012091525481565b61015a6102f136600461286d565b611a07565b61016f61030436600461286d565b611ab3565b610297610317366004612485565b60036020526000908152604090205481565b61015a610337366004612485565b611fd4565b61029761034a36600461286d565b612012565b61015a61035d366004612423565b612033565b6000828152600260205260409020600a015460ff1661039c5760405162461bcd60e51b815260040161039390612a75565b60405180910390fd5b6000828152600260205260409020600101546001600160a01b03163314806103ce57506000546001600160a01b031633145b6103ea5760405162461bcd60e51b815260040161039390612aac565b600081511161043b5760405162461bcd60e51b815260206004820152601a60248201527f436f6e6e656374696f6e2063616e6e6f7420626520656d7074790000000000006044820152606401610393565b60008281526002602090815260408220600d0180546001810182559083529120016104668282612b5d565b5060008281526002602052604090819020426009909101555182907f18d32651bb795b33adf4dace088b810e1bceaac0f45bce201ed6c6cd6ec55cf4906104ae908490612c1c565b60405180910390a25050565b6104c26121eb565b6001600160a01b038216600090815260036020526040812054908190036105215760405162461bcd60e51b81526020600482015260136024820152722ab9b2b9103430b99037379020a4902a3bb4b760691b6044820152606401610393565b60008181526002602081815260409283902083516101c0810185528154815260018201546001600160a01b0316928101929092529182018054919384019161056890612ad4565b80601f016020809104026020016040519081016040528092919081815260200182805461059490612ad4565b80156105e15780601f106105b6576101008083540402835291602001916105e1565b820191906000526020600020905b8154815290600101906020018083116105c457829003601f168201915b505050505081526020016003820180546105fa90612ad4565b80601f016020809104026020016040519081016040528092919081815260200182805461062690612ad4565b80156106735780601f1061064857610100808354040283529160200191610673565b820191906000526020600020905b81548152906001019060200180831161065657829003601f168201915b5050505050815260200160048201805461068c90612ad4565b80601f01602080910402602001604051908101604052809291908181526020018280546106b890612ad4565b80156107055780601f106106da57610100808354040283529160200191610705565b820191906000526020600020905b8154815290600101906020018083116106e857829003601f168201915b5050505050815260200160058201805480602002602001604051908101604052809291908181526020016000905b828210156107df57838290600052602060002001805461075290612ad4565b80601f016020809104026020016040519081016040528092919081815260200182805461077e90612ad4565b80156107cb5780601f106107a0576101008083540402835291602001916107cb565b820191906000526020600020905b8154815290600101906020018083116107ae57829003601f168201915b505050505081526020019060010190610733565b50505050815260200160068201548152602001600782015481526020016008820154815260200160098201548152602001600a820160009054906101000a900460ff16151515158152602001600b8201805480602002602001604051908101604052809291908181526020016000905b828210156108fb57838290600052602060002001805461086e90612ad4565b80601f016020809104026020016040519081016040528092919081815260200182805461089a90612ad4565b80156108e75780601f106108bc576101008083540402835291602001916108e7565b820191906000526020600020905b8154815290600101906020018083116108ca57829003601f168201915b50505050508152602001906001019061084f565b505050508152602001600c820180548060200260200160405190810160405280929190818152602001828054801561095257602002820191906000526020600020905b81548152602001906001019080831161093e575b50505050508152602001600d8201805480602002602001604051908101604052809291908181526020016000905b82821015610a2c57838290600052602060002001805461099f90612ad4565b80601f01602080910402602001604051908101604052809291908181526020018280546109cb90612ad4565b8015610a185780601f106109ed57610100808354040283529160200191610a18565b820191906000526020600020905b8154815290600101906020018083116109fb57829003601f168201915b505050505081526020019060010190610980565b50505091525090949350505050565b6000858152600260205260409020600a015460ff16610a6c5760405162461bcd60e51b815260040161039390612a75565b6000858152600260205260409020600101546001600160a01b0316331480610a9e57506000546001600160a01b031633145b610aba5760405162461bcd60e51b815260040161039390612aac565b838051906020012060026000878152602001908152602001600020600201604051610ae59190612ca2565b604051809103902014610baa57600484604051610b029190612cae565b908152602001604051809103902054600014610b555760405162461bcd60e51b81526020600482015260126024820152712730b6b29030b63932b0b23c903a30b5b2b760711b6044820152606401610393565b60008581526002602081905260408083209051600492610b76920190612ca2565b90815260200160405180910390208190555084600485604051610b999190612cae565b908152604051908190036020019020555b600085815260026020819052604090912001610bc68582612b5d565b506000858152600260205260409020600301610be28482612b5d565b506000858152600260205260409020600401610bfe8382612b5d565b5060008581526002602090815260409091208251610c2492600590920191840190612265565b5060008581526002602052604090819020426009909101555185907f185153321ccaf6a44b08667ca94d43b94d5b0beaf6a30acec7f51482f25d3fe390610c6e9087908790612cca565b60405180910390a25050505050565b60606005805480602002602001604051908101604052809291908181526020018280548015610ccb57602002820191906000526020600020905b815481526020019060010190808311610cb7575b5050505050905090565b600260208190526000918252604090912080546001820154928201805491936001600160a01b03169291610d0890612ad4565b80601f0160208091040260200160405190810160405280929190818152602001828054610d3490612ad4565b8015610d815780601f10610d5657610100808354040283529160200191610d81565b820191906000526020600020905b815481529060010190602001808311610d6457829003601f168201915b505050505090806003018054610d9690612ad4565b80601f0160208091040260200160405190810160405280929190818152602001828054610dc290612ad4565b8015610e0f5780601f10610de457610100808354040283529160200191610e0f565b820191906000526020600020905b815481529060010190602001808311610df257829003601f168201915b505050505090806004018054610e2490612ad4565b80601f0160208091040260200160405190810160405280929190818152602001828054610e5090612ad4565b8015610e9d5780601f10610e7257610100808354040283529160200191610e9d565b820191906000526020600020905b815481529060010190602001808311610e8057829003601f168201915b5050506006840154600785015460088601546009870154600a9097015495969295919450925060ff168a565b6005546060906000906001600160401b03811115610ee957610ee961236e565b604051908082528060200260200182016040528015610f12578160200160208202803683370190505b5090506000805b6005548110156110d557600060058281548110610f3857610f38612cf8565b600091825260208083209091015480835260029091526040909120600a015490915060ff16156110c2576000818152600260209081526040808320600b0180548251818502810185019093528083529192909190849084015b8282101561103d578382906000526020600020018054610fb090612ad4565b80601f0160208091040260200160405190810160405280929190818152602001828054610fdc90612ad4565b80156110295780601f10610ffe57610100808354040283529160200191611029565b820191906000526020600020905b81548152906001019060200180831161100c57829003601f168201915b505050505081526020019060010190610f91565b50505050905060005b81518110156110bf57878051906020012082828151811061106957611069612cf8565b602002602001015180519060200120036110ad578286868151811061109057611090612cf8565b6020908102919091010152846110a581612d0e565b9550506110bf565b806110b781612d0e565b915050611046565b50505b50806110cd81612d0e565b915050610f19565b506000816001600160401b038111156110f0576110f061236e565b604051908082528060200260200182016040528015611119578160200160208202803683370190505b50905060005b828110156111705783818151811061113957611139612cf8565b602002602001015182828151811061115357611153612cf8565b60209081029190910101528061116881612d0e565b91505061111f565b50949350505050565b61118161216e565b6000828152600260205260409020600a015460ff166111b25760405162461bcd60e51b815260040161039390612a75565b60008281526002602090815260408220600c81018054600181018255908452918320909101929092559190915242600990910155565b6111f061216e565b6000838152600260205260409020600a015460ff166112215760405162461bcd60e51b815260040161039390612a75565b6000928352600260205260409092206006810191909155600781019190915542600990910155565b61125161216e565b6000818152600260205260409020600a015460ff16156112ac5760405162461bcd60e51b81526020600482015260166024820152754149205477696e20616c72656164792061637469766560501b6044820152606401610393565b600081815260026020526040808220600a01805460ff191660011790555182917f0ed68c08ab6b3dfeeb1cde7980412ec8fcaae521f0f977ffd3fd2b9362d8190a91a250565b6112fa61216e565b611304600061219b565b565b6005546060906000906001600160401b038111156113265761132661236e565b60405190808252806020026020018201604052801561134f578160200160208202803683370190505b5090506000805b6005548110156115125760006005828154811061137557611375612cf8565b600091825260208083209091015480835260029091526040909120600a015490915060ff16156114ff57600081815260026020908152604080832060050180548251818502810185019093528083529192909190849084015b8282101561147a5783829060005260206000200180546113ed90612ad4565b80601f016020809104026020016040519081016040528092919081815260200182805461141990612ad4565b80156114665780601f1061143b57610100808354040283529160200191611466565b820191906000526020600020905b81548152906001019060200180831161144957829003601f168201915b5050505050815260200190600101906113ce565b50505050905060005b81518110156114fc5787805190602001208282815181106114a6576114a6612cf8565b602002602001015180519060200120036114ea57828686815181106114cd576114cd612cf8565b6020908102919091010152846114e281612d0e565b9550506114fc565b806114f481612d0e565b915050611483565b50505b508061150a81612d0e565b915050611356565b506000816001600160401b0381111561152d5761152d61236e565b604051908082528060200260200182016040528015611556578160200160208202803683370190505b50905060005b828110156111705783818151811061157657611576612cf8565b602002602001015182828151811061159057611590612cf8565b6020908102919091010152806115a581612d0e565b91505061155c565b60006115b761216e565b6001600160a01b0387166116055760405162461bcd60e51b8152602060048201526015602482015274496e76616c6964206f776e6572206164647265737360581b6044820152606401610393565b600086511161164d5760405162461bcd60e51b81526020600482015260146024820152734e616d652063616e6e6f7420626520656d70747960601b6044820152606401610393565b60048660405161165d9190612cae565b9081526020016040518091039020546000146116b05760405162461bcd60e51b81526020600482015260126024820152712730b6b29030b63932b0b23c903a30b5b2b760711b6044820152606401610393565b6001600160a01b038716600090815260036020526040902054156117165760405162461bcd60e51b815260206004820152601b60248201527f5573657220616c72656164792068617320616e204149205477696e00000000006044820152606401610393565b6001805490600061172683612d0e565b919050555060006001549050604051806101c00160405280828152602001896001600160a01b03168152602001888152602001878152602001868152602001858152602001606481526020016001815260200142815260200142815260200160011515815260200184815260200160006001600160401b038111156117ad576117ad61236e565b6040519080825280602002602001820160405280156117d6578160200160208202803683370190505b508152602001600060405190808252806020026020018201604052801561181157816020015b60608152602001906001900390816117fc5790505b50905260008281526002602081815260409283902084518155908401516001820180546001600160a01b0319166001600160a01b0390921691909117905591830151908201906118619082612b5d565b50606082015160038201906118769082612b5d565b506080820151600482019061188b9082612b5d565b5060a082015180516118a7916005840191602090910190612265565b5060c0820151600682015560e0820151600782015561010082015160088201556101208201516009820155610140820151600a8201805460ff1916911515919091179055610160820151805161190791600b840191602090910190612265565b50610180820151805161192491600c8401916020909101906122bb565b506101a0820151805161194191600d840191602090910190612265565b5050506001600160a01b03881660009081526003602052604090819020829055518190600490611972908a90612cae565b90815260405190819003602001812091909155600580546001810182556000919091527f036b6384b5eca791c62761152d0c79bb0604c104a5fb6f4eb0703f3154bb3db0018290556001600160a01b0389169082907f7edddef01e5b0b1fe948d3af4715845dc68a72cc666d2fa674e06d0f86754e6a906119f4908b90612c1c565b60405180910390a3979650505050505050565b611a0f61216e565b6000818152600260205260409020600a015460ff16611a705760405162461bcd60e51b815260206004820152601860248201527f4149205477696e20616c726561647920696e61637469766500000000000000006044820152606401610393565b600081815260026020526040808220600a01805460ff191690555182917f8dd84aef4c91ab145cb12642bdfbedc126400eba4f5f466bb43d0fcf717af37791a250565b611abb6121eb565b60008281526002602081815260409283902083516101c0810185528154815260018201546001600160a01b03169281019290925291820180549193840191611b0290612ad4565b80601f0160208091040260200160405190810160405280929190818152602001828054611b2e90612ad4565b8015611b7b5780601f10611b5057610100808354040283529160200191611b7b565b820191906000526020600020905b815481529060010190602001808311611b5e57829003601f168201915b50505050508152602001600382018054611b9490612ad4565b80601f0160208091040260200160405190810160405280929190818152602001828054611bc090612ad4565b8015611c0d5780601f10611be257610100808354040283529160200191611c0d565b820191906000526020600020905b815481529060010190602001808311611bf057829003601f168201915b50505050508152602001600482018054611c2690612ad4565b80601f0160208091040260200160405190810160405280929190818152602001828054611c5290612ad4565b8015611c9f5780601f10611c7457610100808354040283529160200191611c9f565b820191906000526020600020905b815481529060010190602001808311611c8257829003601f168201915b5050505050815260200160058201805480602002602001604051908101604052809291908181526020016000905b82821015611d79578382906000526020600020018054611cec90612ad4565b80601f0160208091040260200160405190810160405280929190818152602001828054611d1890612ad4565b8015611d655780601f10611d3a57610100808354040283529160200191611d65565b820191906000526020600020905b815481529060010190602001808311611d4857829003601f168201915b505050505081526020019060010190611ccd565b50505050815260200160068201548152602001600782015481526020016008820154815260200160098201548152602001600a820160009054906101000a900460ff16151515158152602001600b8201805480602002602001604051908101604052809291908181526020016000905b82821015611e95578382906000526020600020018054611e0890612ad4565b80601f0160208091040260200160405190810160405280929190818152602001828054611e3490612ad4565b8015611e815780601f10611e5657610100808354040283529160200191611e81565b820191906000526020600020905b815481529060010190602001808311611e6457829003601f168201915b505050505081526020019060010190611de9565b505050508152602001600c8201805480602002602001604051908101604052809291908181526020018280548015611eec57602002820191906000526020600020905b815481526020019060010190808311611ed8575b50505050508152602001600d8201805480602002602001604051908101604052809291908181526020016000905b82821015611fc6578382906000526020600020018054611f3990612ad4565b80601f0160208091040260200160405190810160405280929190818152602001828054611f6590612ad4565b8015611fb25780601f10611f8757610100808354040283529160200191611fb2565b820191906000526020600020905b815481529060010190602001808311611f9557829003601f168201915b505050505081526020019060010190611f1a565b505050915250909392505050565b611fdc61216e565b6001600160a01b03811661200657604051631e4fbdf760e01b815260006004820152602401610393565b61200f8161219b565b50565b6005818154811061202257600080fd5b600091825260209091200154905081565b6000828152600260205260409020600a015460ff166120645760405162461bcd60e51b815260040161039390612a75565b6000828152600260205260409020600101546001600160a01b031633148061209657506000546001600160a01b031633145b6120b25760405162461bcd60e51b815260040161039390612aac565b60008151116120fb5760405162461bcd60e51b8152602060048201526015602482015274536b696c6c2063616e6e6f7420626520656d70747960581b6044820152606401610393565b60008281526002602090815260408220600b0180546001810182559083529120016121268282612b5d565b5060008281526002602052604090819020426009909101555182907f9187da888fb0a4e77ba1969299efdd67961b0bba0aea2875b80e51aefe03f250906104ae908490612c1c565b6000546001600160a01b031633146113045760405163118cdaa760e01b8152336004820152602401610393565b600080546001600160a01b038381166001600160a01b0319831681178455604051919092169283917f8be0079c531659141344cd1fd0a4f28419497f9722a3daafe3b4186f6b6457e09190a35050565b604051806101c001604052806000815260200160006001600160a01b0316815260200160608152602001606081526020016060815260200160608152602001600081526020016000815260200160008152602001600081526020016000151581526020016060815260200160608152602001606081525090565b8280548282559060005260206000209081019282156122ab579160200282015b828111156122ab578251829061229b9082612b5d565b5091602001919060010190612285565b506122b7929150612302565b5090565b8280548282559060005260206000209081019282156122f6579160200282015b828111156122f65782518255916020019190600101906122db565b506122b792915061231f565b808211156122b75760006123168282612334565b50600101612302565b5b808211156122b75760008155600101612320565b50805461234090612ad4565b6000825580601f10612350575050565b601f01602090049060005260206000209081019061200f919061231f565b634e487b7160e01b600052604160045260246000fd5b604051601f8201601f191681016001600160401b03811182821017156123ac576123ac61236e565b604052919050565b600082601f8301126123c557600080fd5b81356001600160401b038111156123de576123de61236e565b6123f1601f8201601f1916602001612384565b81815284602083860101111561240657600080fd5b816020850160208301376000918101602001919091529392505050565b6000806040838503121561243657600080fd5b8235915060208301356001600160401b0381111561245357600080fd5b61245f858286016123b4565b9150509250929050565b80356001600160a01b038116811461248057600080fd5b919050565b60006020828403121561249757600080fd5b6124a082612469565b9392505050565b60005b838110156124c25781810151838201526020016124aa565b50506000910152565b600081518084526124e38160208601602086016124a7565b601f01601f19169290920160200192915050565b600082825180855260208086019550808260051b84010181860160005b8481101561254257601f198684030189526125308383516124cb565b98840198925090830190600101612514565b5090979650505050505050565b600081518084526020808501945080840160005b8381101561257f57815187529582019590820190600101612563565b509495945050505050565b6020815281516020820152600060208301516125b160408401826001600160a01b03169052565b5060408301516101c08060608501526125ce6101e08501836124cb565b91506060850151601f19808685030160808701526125ec84836124cb565b935060808701519150808685030160a087015261260984836124cb565b935060a08701519150808685030160c087015261262684836124f7565b60c088015160e08881019190915288015161010080890191909152880151610120808901919091528801516101408089019190915288015190945091506101606126738188018415159052565b8088015192505061018081878603018188015261269085846124f7565b9450808801519250506101a08187860301818801526126af858461254f565b9088015187820390920184880152935090506126cb83826124f7565b9695505050505050565b600082601f8301126126e657600080fd5b813560206001600160401b03808311156127025761270261236e565b8260051b612711838201612384565b938452858101830193838101908886111561272b57600080fd5b84880192505b85831015612767578235848111156127495760008081fd5b6127578a87838c01016123b4565b8352509184019190840190612731565b98975050505050505050565b600080600080600060a0868803121561278b57600080fd5b8535945060208601356001600160401b03808211156127a957600080fd5b6127b589838a016123b4565b955060408801359150808211156127cb57600080fd5b6127d789838a016123b4565b945060608801359150808211156127ed57600080fd5b6127f989838a016123b4565b9350608088013591508082111561280f57600080fd5b5061281c888289016126d5565b9150509295509295909350565b6020808252825182820181905260009190848201906040850190845b8181101561286157835183529284019291840191600101612845565b50909695505050505050565b60006020828403121561287f57600080fd5b5035919050565b8a81526001600160a01b038a166020820152610140604082018190526000906128b18382018c6124cb565b905082810360608401526128c5818b6124cb565b905082810360808401526128d9818a6124cb565b60a0840198909852505060c081019490945260e084019290925261010083015215156101209091015295945050505050565b60006020828403121561291d57600080fd5b81356001600160401b0381111561293357600080fd5b61293f848285016123b4565b949350505050565b6000806040838503121561295a57600080fd5b50508035926020909101359150565b60008060006060848603121561297e57600080fd5b505081359360208301359350604090920135919050565b60008060008060008060c087890312156129ae57600080fd5b6129b787612469565b955060208701356001600160401b03808211156129d357600080fd5b6129df8a838b016123b4565b965060408901359150808211156129f557600080fd5b612a018a838b016123b4565b95506060890135915080821115612a1757600080fd5b612a238a838b016123b4565b94506080890135915080821115612a3957600080fd5b612a458a838b016126d5565b935060a0890135915080821115612a5b57600080fd5b50612a6889828a016126d5565b9150509295509295509295565b6020808252601d908201527f4149205477696e206e6f7420666f756e64206f7220696e616374697665000000604082015260600190565b6020808252600e908201526d139bdd08185d5d1a1bdc9a5e995960921b604082015260600190565b600181811c90821680612ae857607f821691505b602082108103612b0857634e487b7160e01b600052602260045260246000fd5b50919050565b601f821115612b5857600081815260208120601f850160051c81016020861015612b355750805b601f850160051c820191505b81811015612b5457828155600101612b41565b5050505b505050565b81516001600160401b03811115612b7657612b7661236e565b612b8a81612b848454612ad4565b84612b0e565b602080601f831160018114612bbf5760008415612ba75750858301515b600019600386901b1c1916600185901b178555612b54565b600085815260208120601f198616915b82811015612bee57888601518255948401946001909101908401612bcf565b5085821015612c0c5787850151600019600388901b60f8161c191681555b5050505050600190811b01905550565b6020815260006124a060208301846124cb565b60008154612c3c81612ad4565b60018281168015612c545760018114612c6957612c98565b60ff1984168752821515830287019450612c98565b8560005260208060002060005b85811015612c8f5781548a820152908401908201612c76565b50505082870194505b5050505092915050565b60006124a08284612c2f565b60008251612cc08184602087016124a7565b9190910192915050565b604081526000612cdd60408301856124cb565b8281036020840152612cef81856124cb565b95945050505050565b634e487b7160e01b600052603260045260246000fd5b600060018201612d2e57634e487b7160e01b600052601160045260246000fd5b506001019056fea26469706673582212201ee51775169b267968538e68d99ca2a3023584c6b3a2b555ac13f4223c1d11de64736f6c63430008140033",
  "linkReferences": {},
  "deployedLinkReferences": {}
}